{
    "_format": "hh-sol-artifact-1",
    "contractName": "OnomaContract",
    "sourceName": "contracts/OnomaContract.sol",
    "abi": [
        {
            "inputs": [
                {
                    "internalType": "address payable",
                    "name": "minter",
                    "type": "address"
                }
            ],
            "stateMutability": "nonpayable",
            "type": "constructor"
        },
        {
            "anonymous": false,
            "inputs": [
                {
                    "indexed": true,
                    "internalType": "address",
                    "name": "owner",
                    "type": "address"
                },
                {
                    "indexed": true,
                    "internalType": "address",
                    "name": "approved",
                    "type": "address"
                },
                {
                    "indexed": true,
                    "internalType": "uint256",
                    "name": "tokenId",
                    "type": "uint256"
                }
            ],
            "name": "Approval",
            "type": "event"
        },
        {
            "anonymous": false,
            "inputs": [
                {
                    "indexed": true,
                    "internalType": "address",
                    "name": "owner",
                    "type": "address"
                },
                {
                    "indexed": true,
                    "internalType": "address",
                    "name": "operator",
                    "type": "address"
                },
                {
                    "indexed": false,
                    "internalType": "bool",
                    "name": "approved",
                    "type": "bool"
                }
            ],
            "name": "ApprovalForAll",
            "type": "event"
        },
        {
            "anonymous": false,
            "inputs": [
                {
                    "indexed": true,
                    "internalType": "bytes32",
                    "name": "role",
                    "type": "bytes32"
                },
                {
                    "indexed": true,
                    "internalType": "bytes32",
                    "name": "previousAdminRole",
                    "type": "bytes32"
                },
                {
                    "indexed": true,
                    "internalType": "bytes32",
                    "name": "newAdminRole",
                    "type": "bytes32"
                }
            ],
            "name": "RoleAdminChanged",
            "type": "event"
        },
        {
            "anonymous": false,
            "inputs": [
                {
                    "indexed": true,
                    "internalType": "bytes32",
                    "name": "role",
                    "type": "bytes32"
                },
                {
                    "indexed": true,
                    "internalType": "address",
                    "name": "account",
                    "type": "address"
                },
                {
                    "indexed": true,
                    "internalType": "address",
                    "name": "sender",
                    "type": "address"
                }
            ],
            "name": "RoleGranted",
            "type": "event"
        },
        {
            "anonymous": false,
            "inputs": [
                {
                    "indexed": true,
                    "internalType": "bytes32",
                    "name": "role",
                    "type": "bytes32"
                },
                {
                    "indexed": true,
                    "internalType": "address",
                    "name": "account",
                    "type": "address"
                },
                {
                    "indexed": true,
                    "internalType": "address",
                    "name": "sender",
                    "type": "address"
                }
            ],
            "name": "RoleRevoked",
            "type": "event"
        },
        {
            "anonymous": false,
            "inputs": [
                {
                    "indexed": true,
                    "internalType": "address",
                    "name": "from",
                    "type": "address"
                },
                {
                    "indexed": true,
                    "internalType": "address",
                    "name": "to",
                    "type": "address"
                },
                {
                    "indexed": true,
                    "internalType": "uint256",
                    "name": "tokenId",
                    "type": "uint256"
                }
            ],
            "name": "Transfer",
            "type": "event"
        },
        {
            "inputs": [],
            "name": "DEFAULT_ADMIN_ROLE",
            "outputs": [
                {
                    "internalType": "bytes32",
                    "name": "",
                    "type": "bytes32"
                }
            ],
            "stateMutability": "view",
            "type": "function"
        },
        {
            "inputs": [],
            "name": "MINTER_ROLE",
            "outputs": [
                {
                    "internalType": "bytes32",
                    "name": "",
                    "type": "bytes32"
                }
            ],
            "stateMutability": "view",
            "type": "function"
        },
        {
            "inputs": [
                {
                    "internalType": "address",
                    "name": "to",
                    "type": "address"
                },
                {
                    "internalType": "uint256",
                    "name": "tokenId",
                    "type": "uint256"
                }
            ],
            "name": "approve",
            "outputs": [],
            "stateMutability": "nonpayable",
            "type": "function"
        },
        {
            "inputs": [
                {
                    "internalType": "address",
                    "name": "owner",
                    "type": "address"
                }
            ],
            "name": "balanceOf",
            "outputs": [
                {
                    "internalType": "uint256",
                    "name": "",
                    "type": "uint256"
                }
            ],
            "stateMutability": "view",
            "type": "function"
        },
        {
            "inputs": [
                {
                    "internalType": "uint256",
                    "name": "tokenId",
                    "type": "uint256"
                }
            ],
            "name": "getApproved",
            "outputs": [
                {
                    "internalType": "address",
                    "name": "",
                    "type": "address"
                }
            ],
            "stateMutability": "view",
            "type": "function"
        },
        {
            "inputs": [
                {
                    "internalType": "bytes32",
                    "name": "role",
                    "type": "bytes32"
                }
            ],
            "name": "getRoleAdmin",
            "outputs": [
                {
                    "internalType": "bytes32",
                    "name": "",
                    "type": "bytes32"
                }
            ],
            "stateMutability": "view",
            "type": "function"
        },
        {
            "inputs": [
                {
                    "internalType": "bytes32",
                    "name": "role",
                    "type": "bytes32"
                },
                {
                    "internalType": "address",
                    "name": "account",
                    "type": "address"
                }
            ],
            "name": "grantRole",
            "outputs": [],
            "stateMutability": "nonpayable",
            "type": "function"
        },
        {
            "inputs": [
                {
                    "internalType": "bytes32",
                    "name": "role",
                    "type": "bytes32"
                },
                {
                    "internalType": "address",
                    "name": "account",
                    "type": "address"
                }
            ],
            "name": "hasRole",
            "outputs": [
                {
                    "internalType": "bool",
                    "name": "",
                    "type": "bool"
                }
            ],
            "stateMutability": "view",
            "type": "function"
        },
        {
            "inputs": [
                {
                    "internalType": "address",
                    "name": "owner",
                    "type": "address"
                },
                {
                    "internalType": "address",
                    "name": "operator",
                    "type": "address"
                }
            ],
            "name": "isApprovedForAll",
            "outputs": [
                {
                    "internalType": "bool",
                    "name": "",
                    "type": "bool"
                }
            ],
            "stateMutability": "view",
            "type": "function"
        },
        {
            "inputs": [],
            "name": "name",
            "outputs": [
                {
                    "internalType": "string",
                    "name": "",
                    "type": "string"
                }
            ],
            "stateMutability": "view",
            "type": "function"
        },
        {
            "inputs": [
                {
                    "internalType": "uint256",
                    "name": "tokenId",
                    "type": "uint256"
                }
            ],
            "name": "ownerOf",
            "outputs": [
                {
                    "internalType": "address",
                    "name": "",
                    "type": "address"
                }
            ],
            "stateMutability": "view",
            "type": "function"
        },
        {
            "inputs": [
                {
                    "internalType": "address",
                    "name": "redeemer",
                    "type": "address"
                },
                {
                    "components": [
                        {
                            "internalType": "uint256",
                            "name": "tokenId",
                            "type": "uint256"
                        },
                        {
                            "internalType": "uint256",
                            "name": "minPrice",
                            "type": "uint256"
                        },
                        {
                            "internalType": "string",
                            "name": "uri",
                            "type": "string"
                        },
                        {
                            "internalType": "bytes",
                            "name": "signature",
                            "type": "bytes"
                        }
                    ],
                    "internalType": "struct OnomaContract.NFTVoucher",
                    "name": "voucher",
                    "type": "tuple"
                }
            ],
            "name": "redeem",
            "outputs": [
                {
                    "internalType": "uint256",
                    "name": "",
                    "type": "uint256"
                }
            ],
            "stateMutability": "payable",
            "type": "function"
        },
        {
            "inputs": [
                {
                    "internalType": "bytes32",
                    "name": "role",
                    "type": "bytes32"
                },
                {
                    "internalType": "address",
                    "name": "account",
                    "type": "address"
                }
            ],
            "name": "renounceRole",
            "outputs": [],
            "stateMutability": "nonpayable",
            "type": "function"
        },
        {
            "inputs": [
                {
                    "internalType": "address",
                    "name": "redeemer",
                    "type": "address"
                },
                {
                    "components": [
                        {
                            "internalType": "uint256",
                            "name": "tokenId",
                            "type": "uint256"
                        },
                        {
                            "internalType": "uint256",
                            "name": "minPrice",
                            "type": "uint256"
                        },
                        {
                            "internalType": "string",
                            "name": "uri",
                            "type": "string"
                        },
                        {
                            "internalType": "bytes",
                            "name": "signature",
                            "type": "bytes"
                        }
                    ],
                    "internalType": "struct OnomaContract.NFTVoucher",
                    "name": "voucher",
                    "type": "tuple"
                }
            ],
            "name": "resell",
            "outputs": [
                {
                    "internalType": "uint256",
                    "name": "",
                    "type": "uint256"
                }
            ],
            "stateMutability": "payable",
            "type": "function"
        },
        {
            "inputs": [
                {
                    "internalType": "bytes32",
                    "name": "role",
                    "type": "bytes32"
                },
                {
                    "internalType": "address",
                    "name": "account",
                    "type": "address"
                }
            ],
            "name": "revokeRole",
            "outputs": [],
            "stateMutability": "nonpayable",
            "type": "function"
        },
        {
            "inputs": [
                {
                    "internalType": "address",
                    "name": "from",
                    "type": "address"
                },
                {
                    "internalType": "address",
                    "name": "to",
                    "type": "address"
                },
                {
                    "internalType": "uint256",
                    "name": "tokenId",
                    "type": "uint256"
                }
            ],
            "name": "safeTransferFrom",
            "outputs": [],
            "stateMutability": "nonpayable",
            "type": "function"
        },
        {
            "inputs": [
                {
                    "internalType": "address",
                    "name": "from",
                    "type": "address"
                },
                {
                    "internalType": "address",
                    "name": "to",
                    "type": "address"
                },
                {
                    "internalType": "uint256",
                    "name": "tokenId",
                    "type": "uint256"
                },
                {
                    "internalType": "bytes",
                    "name": "_data",
                    "type": "bytes"
                }
            ],
            "name": "safeTransferFrom",
            "outputs": [],
            "stateMutability": "nonpayable",
            "type": "function"
        },
        {
            "inputs": [
                {
                    "internalType": "address",
                    "name": "operator",
                    "type": "address"
                },
                {
                    "internalType": "bool",
                    "name": "approved",
                    "type": "bool"
                }
            ],
            "name": "setApprovalForAll",
            "outputs": [],
            "stateMutability": "nonpayable",
            "type": "function"
        },
        {
            "inputs": [
                {
                    "internalType": "bytes4",
                    "name": "interfaceId",
                    "type": "bytes4"
                }
            ],
            "name": "supportsInterface",
            "outputs": [
                {
                    "internalType": "bool",
                    "name": "",
                    "type": "bool"
                }
            ],
            "stateMutability": "view",
            "type": "function"
        },
        {
            "inputs": [],
            "name": "symbol",
            "outputs": [
                {
                    "internalType": "string",
                    "name": "",
                    "type": "string"
                }
            ],
            "stateMutability": "view",
            "type": "function"
        },
        {
            "inputs": [
                {
                    "internalType": "uint256",
                    "name": "tokenId",
                    "type": "uint256"
                }
            ],
            "name": "tokenURI",
            "outputs": [
                {
                    "internalType": "string",
                    "name": "",
                    "type": "string"
                }
            ],
            "stateMutability": "view",
            "type": "function"
        },
        {
            "inputs": [
                {
                    "internalType": "address",
                    "name": "from",
                    "type": "address"
                },
                {
                    "internalType": "address",
                    "name": "to",
                    "type": "address"
                },
                {
                    "internalType": "uint256",
                    "name": "tokenId",
                    "type": "uint256"
                }
            ],
            "name": "transferFrom",
            "outputs": [],
            "stateMutability": "nonpayable",
            "type": "function"
        },
        {
            "inputs": [],
            "name": "withdraw",
            "outputs": [],
            "stateMutability": "nonpayable",
            "type": "function"
        }
    ],
    "bytecode": "0x610140604052600880546001600160a01b03191673612b9c1860566f0a83f106e893933f86533f6ede1790553480156200003857600080fd5b5060405162002a9238038062002a928339810160408190526200005b9162000334565b6040518060400160405280600f81526020016e2630bd3ca7232a16ab37bab1b432b960891b815250604051806040016040528060018152602001603160f81b8152506040518060400160405280600d81526020016c13db9bdb5850dbdb9d1c9858dd609a1b815250604051806040016040528060038152602001624f4e4d60e81b8152508160009080519060200190620000f79291906200028e565b5080516200010d9060019060208401906200028e565b5050825160208085019190912083518483012060e08290526101008190524660a0818152604080517f8b73c3c69bb8fe3d512ecc4cf759cc79239f7b179b0ffacaa9a75d522b39400f81880181905281830187905260608201869052608082019490945230818401528151808203909301835260c0019052805194019390932091935091906080523060601b60c0526101205250620001d392507f9f2df0fed2c77648de5860a4cc508cd0818c85b8b8a1ab4ceeef8d981c8956a69150839050620001da565b50620003a1565b620001e68282620001ea565b5050565b60008281526007602090815260408083206001600160a01b038516845290915290205460ff16620001e65760008281526007602090815260408083206001600160a01b03851684529091529020805460ff191660011790556200024a3390565b6001600160a01b0316816001600160a01b0316837f2f8788117e7eff1d82e926ec794901d17c78024a50270940304540a733656f0d60405160405180910390a45050565b8280546200029c9062000364565b90600052602060002090601f016020900481019282620002c057600085556200030b565b82601f10620002db57805160ff19168380011785556200030b565b828001600101855582156200030b579182015b828111156200030b578251825591602001919060010190620002ee565b50620003199291506200031d565b5090565b5b808211156200031957600081556001016200031e565b60006020828403121562000346578081fd5b81516001600160a01b03811681146200035d578182fd5b9392505050565b600181811c908216806200037957607f821691505b602082108114156200039b57634e487b7160e01b600052602260045260246000fd5b50919050565b60805160a05160c05160601c60e051610100516101205161269e620003f46000396000611de301526000611e3201526000611e0d01526000611d6601526000611d9001526000611dba015261269e6000f3fe6080604052600436106101405760003560e01c80636352211e116100b6578063b88d4fde1161006f578063b88d4fde14610386578063c87b56dd146103a6578063cef1a220146103c6578063d5391393146103d9578063d547741f1461040d578063e985e9c51461042d57600080fd5b80636352211e146102dc57806370a08231146102fc57806391d148541461031c57806395d89b411461033c578063a217fddf14610351578063a22cb4651461036657600080fd5b806323b872dd1161010857806323b872dd14610217578063248a9ca3146102375780632f2ff15d1461026757806336568abe146102875780633ccfd60b146102a757806342842e0e146102bc57600080fd5b806301ffc9a71461014557806306fdde031461017a578063081812fc1461019c57806308708a78146101d4578063095ea7b3146101f5575b600080fd5b34801561015157600080fd5b5061016561016036600461229b565b610476565b60405190151581526020015b60405180910390f35b34801561018657600080fd5b5061018f610496565b60405161017191906123f0565b3480156101a857600080fd5b506101bc6101b7366004612261565b610528565b6040516001600160a01b039091168152602001610171565b6101e76101e23660046121f1565b6105b5565b604051908152602001610171565b34801561020157600080fd5b50610215610210366004612238565b6106d3565b005b34801561022357600080fd5b506102156102323660046120a7565b6107e9565b34801561024357600080fd5b506101e7610252366004612261565b60009081526007602052604090206001015490565b34801561027357600080fd5b50610215610282366004612279565b61081a565b34801561029357600080fd5b506102156102a2366004612279565b610840565b3480156102b357600080fd5b506102156108be565b3480156102c857600080fd5b506102156102d73660046120a7565b61097a565b3480156102e857600080fd5b506101bc6102f7366004612261565b610995565b34801561030857600080fd5b506101e761031736600461205b565b610a0c565b34801561032857600080fd5b50610165610337366004612279565b610a93565b34801561034857600080fd5b5061018f610abe565b34801561035d57600080fd5b506101e7600081565b34801561037257600080fd5b506102156103813660046121b7565b610acd565b34801561039257600080fd5b506102156103a13660046120e2565b610ad8565b3480156103b257600080fd5b5061018f6103c1366004612261565b610b10565b6101e76103d43660046121f1565b610c87565b3480156103e557600080fd5b506101e77f9f2df0fed2c77648de5860a4cc508cd0818c85b8b8a1ab4ceeef8d981c8956a681565b34801561041957600080fd5b50610215610428366004612279565b610ce9565b34801561043957600080fd5b50610165610448366004612075565b6001600160a01b03918216600090815260056020908152604080832093909416825291909152205460ff1690565b600061048182610d0f565b80610490575061049082610d5f565b92915050565b6060600080546104a5906125a6565b80601f01602080910402602001604051908101604052809291908181526020018280546104d1906125a6565b801561051e5780601f106104f35761010080835404028352916020019161051e565b820191906000526020600020905b81548152906001019060200180831161050157829003601f168201915b5050505050905090565b600061053382610d84565b6105995760405162461bcd60e51b815260206004820152602c60248201527f4552433732313a20617070726f76656420717565727920666f72206e6f6e657860448201526b34b9ba32b73a103a37b5b2b760a11b60648201526084015b60405180910390fd5b506000908152600460205260409020546001600160a01b031690565b6000806105c183610da1565b905082602001353410156106175760405162461bcd60e51b815260206004820152601c60248201527f496e73756666696369656e742066756e647320746f2072656465656d000000006044820152606401610590565b610622818435610e01565b61066e833561063460408601866124eb565b8080601f016020809104026020016040519081016040528093929190818152602001838380828437600092019190915250610f3492505050565b61067a81858535610fbf565b6000610687600a34612519565b90506001600160a01b0382166108fc6106a0833461254c565b6040518115909202916000818181858888f193505050501580156106c8573d6000803e3d6000fd5b505091359392505050565b60006106de82610995565b9050806001600160a01b0316836001600160a01b0316141561074c5760405162461bcd60e51b815260206004820152602160248201527f4552433732313a20617070726f76616c20746f2063757272656e74206f776e656044820152603960f91b6064820152608401610590565b336001600160a01b038216148061076857506107688133610448565b6107da5760405162461bcd60e51b815260206004820152603860248201527f4552433732313a20617070726f76652063616c6c6572206973206e6f74206f7760448201527f6e6572206e6f7220617070726f76656420666f7220616c6c00000000000000006064820152608401610590565b6107e4838361115b565b505050565b6107f333826111c9565b61080f5760405162461bcd60e51b815260040161059090612455565b6107e4838383610fbf565b60008281526007602052604090206001015461083681336112af565b6107e48383611313565b6001600160a01b03811633146108b05760405162461bcd60e51b815260206004820152602f60248201527f416363657373436f6e74726f6c3a2063616e206f6e6c792072656e6f756e636560448201526e103937b632b9903337b91039b2b63360891b6064820152608401610590565b6108ba8282611399565b5050565b6108e87f9f2df0fed2c77648de5860a4cc508cd0818c85b8b8a1ab4ceeef8d981c8956a633610a93565b6109405760405162461bcd60e51b8152602060048201526024808201527f4f6e6c7920617574686f72697a6564206d696e746572732063616e20776974686044820152636472617760e01b6064820152608401610590565b60085460405147916001600160a01b03169082156108fc029083906000818181858888f193505050501580156108ba573d6000803e3d6000fd5b6107e483838360405180602001604052806000815250610ad8565b6000818152600260205260408120546001600160a01b0316806104905760405162461bcd60e51b815260206004820152602960248201527f4552433732313a206f776e657220717565727920666f72206e6f6e657869737460448201526832b73a103a37b5b2b760b91b6064820152608401610590565b60006001600160a01b038216610a775760405162461bcd60e51b815260206004820152602a60248201527f4552433732313a2062616c616e636520717565727920666f7220746865207a65604482015269726f206164647265737360b01b6064820152608401610590565b506001600160a01b031660009081526003602052604090205490565b60009182526007602090815260408084206001600160a01b0393909316845291905290205460ff1690565b6060600180546104a5906125a6565b6108ba338383611400565b610ae233836111c9565b610afe5760405162461bcd60e51b815260040161059090612455565b610b0a848484846114cf565b50505050565b6060610b1b82610d84565b610b815760405162461bcd60e51b815260206004820152603160248201527f45524337323155524953746f726167653a2055524920717565727920666f72206044820152703737b732bc34b9ba32b73a103a37b5b2b760791b6064820152608401610590565b60008281526006602052604081208054610b9a906125a6565b80601f0160208091040260200160405190810160405280929190818152602001828054610bc6906125a6565b8015610c135780601f10610be857610100808354040283529160200191610c13565b820191906000526020600020905b815481529060010190602001808311610bf657829003601f168201915b505050505090506000610c3160408051602081019091526000815290565b9050805160001415610c44575092915050565b815115610c76578082604051602001610c5e92919061230f565b60405160208183030381529060405292505050919050565b610c7f84611502565b949350505050565b600080610c9383610da1565b9050826020013534101561066e5760405162461bcd60e51b815260206004820152601c60248201527f496e73756666696369656e742066756e647320746f2072656465656d000000006044820152606401610590565b600082815260076020526040902060010154610d0581336112af565b6107e48383611399565b60006001600160e01b031982166380ac58cd60e01b1480610d4057506001600160e01b03198216635b5e139f60e01b145b8061049057506301ffc9a760e01b6001600160e01b0319831614610490565b60006001600160e01b03198216637965db0b60e01b1480610490575061049082610d0f565b6000908152600260205260409020546001600160a01b0316151590565b600080610dad836115d9565b9050610dfa81610dc060608601866124a6565b8080601f01602080910402602001604051908101604052809392919081815260200183838082843760009201919091525061166a92505050565b9392505050565b6001600160a01b038216610e575760405162461bcd60e51b815260206004820181905260248201527f4552433732313a206d696e7420746f20746865207a65726f20616464726573736044820152606401610590565b610e6081610d84565b15610ead5760405162461bcd60e51b815260206004820152601c60248201527f4552433732313a20746f6b656e20616c7265616479206d696e746564000000006044820152606401610590565b6001600160a01b0382166000908152600360205260408120805460019290610ed6908490612501565b909155505060008181526002602052604080822080546001600160a01b0319166001600160a01b03861690811790915590518392907fddf252ad1be2c89b69c2b068fc378daa952ba7f163c4a11628f55a4df523b3ef908290a45050565b610f3d82610d84565b610fa05760405162461bcd60e51b815260206004820152602e60248201527f45524337323155524953746f726167653a2055524920736574206f66206e6f6e60448201526d32bc34b9ba32b73a103a37b5b2b760911b6064820152608401610590565b600082815260066020908152604090912082516107e492840190611fa6565b826001600160a01b0316610fd282610995565b6001600160a01b0316146110365760405162461bcd60e51b815260206004820152602560248201527f4552433732313a207472616e736665722066726f6d20696e636f72726563742060448201526437bbb732b960d91b6064820152608401610590565b6001600160a01b0382166110985760405162461bcd60e51b8152602060048201526024808201527f4552433732313a207472616e7366657220746f20746865207a65726f206164646044820152637265737360e01b6064820152608401610590565b6110a360008261115b565b6001600160a01b03831660009081526003602052604081208054600192906110cc90849061254c565b90915550506001600160a01b03821660009081526003602052604081208054600192906110fa908490612501565b909155505060008181526002602052604080822080546001600160a01b0319166001600160a01b0386811691821790925591518493918716917fddf252ad1be2c89b69c2b068fc378daa952ba7f163c4a11628f55a4df523b3ef91a4505050565b600081815260046020526040902080546001600160a01b0319166001600160a01b038416908117909155819061119082610995565b6001600160a01b03167f8c5be1e5ebec7d5bd14f71427d1e84f3dd0314c0f7b2291e5b200ac8c7c3b92560405160405180910390a45050565b60006111d482610d84565b6112355760405162461bcd60e51b815260206004820152602c60248201527f4552433732313a206f70657261746f7220717565727920666f72206e6f6e657860448201526b34b9ba32b73a103a37b5b2b760a11b6064820152608401610590565b600061124083610995565b9050806001600160a01b0316846001600160a01b0316148061127b5750836001600160a01b031661127084610528565b6001600160a01b0316145b80610c7f57506001600160a01b0380821660009081526005602090815260408083209388168352929052205460ff16610c7f565b6112b98282610a93565b6108ba576112d1816001600160a01b0316601461168e565b6112dc83602061168e565b6040516020016112ed92919061233e565b60408051601f198184030181529082905262461bcd60e51b8252610590916004016123f0565b61131d8282610a93565b6108ba5760008281526007602090815260408083206001600160a01b03851684529091529020805460ff191660011790556113553390565b6001600160a01b0316816001600160a01b0316837f2f8788117e7eff1d82e926ec794901d17c78024a50270940304540a733656f0d60405160405180910390a45050565b6113a38282610a93565b156108ba5760008281526007602090815260408083206001600160a01b0385168085529252808320805460ff1916905551339285917ff6391f5c32d9c69d2a47ea670b442974b53935d1edc7fd64eb21e047a839171b9190a45050565b816001600160a01b0316836001600160a01b031614156114625760405162461bcd60e51b815260206004820152601960248201527f4552433732313a20617070726f766520746f2063616c6c6572000000000000006044820152606401610590565b6001600160a01b03838116600081815260056020908152604080832094871680845294825291829020805460ff191686151590811790915591519182527f17307eab39ab6107e8899845ad3d59bd9653f200f220920489ca2b5937696c31910160405180910390a3505050565b6114da848484610fbf565b6114e684848484611870565b610b0a5760405162461bcd60e51b815260040161059090612403565b606061150d82610d84565b6115715760405162461bcd60e51b815260206004820152602f60248201527f4552433732314d657461646174613a2055524920717565727920666f72206e6f60448201526e3732bc34b9ba32b73a103a37b5b2b760891b6064820152608401610590565b600061158860408051602081019091526000815290565b905060008151116115a85760405180602001604052806000815250610dfa565b806115b28461197d565b6040516020016115c392919061230f565b6040516020818303038152906040529392505050565b60006104907f6316f9ddd4d59a364f3b95c26bab9d392c3380ace0fff15e91ed76f0d8bcd15a8335602085013561161360408701876124eb565b6040516116219291906122ff565b60405190819003812061164f9493929160200193845260208401929092526040830152606082015260800190565b60405160208183030381529060405280519060200120611a97565b60008060006116798585611ae5565b9150915061168681611b55565b509392505050565b6060600061169d83600261252d565b6116a8906002612501565b67ffffffffffffffff8111156116ce57634e487b7160e01b600052604160045260246000fd5b6040519080825280601f01601f1916602001820160405280156116f8576020820181803683370190505b509050600360fc1b8160008151811061172157634e487b7160e01b600052603260045260246000fd5b60200101906001600160f81b031916908160001a905350600f60fb1b8160018151811061175e57634e487b7160e01b600052603260045260246000fd5b60200101906001600160f81b031916908160001a905350600061178284600261252d565b61178d906001612501565b90505b6001811115611821576f181899199a1a9b1b9c1cb0b131b232b360811b85600f16601081106117cf57634e487b7160e01b600052603260045260246000fd5b1a60f81b8282815181106117f357634e487b7160e01b600052603260045260246000fd5b60200101906001600160f81b031916908160001a90535060049490941c9361181a8161258f565b9050611790565b508315610dfa5760405162461bcd60e51b815260206004820181905260248201527f537472696e67733a20686578206c656e67746820696e73756666696369656e746044820152606401610590565b60006001600160a01b0384163b1561197257604051630a85bd0160e11b81526001600160a01b0385169063150b7a02906118b49033908990889088906004016123b3565b602060405180830381600087803b1580156118ce57600080fd5b505af19250505080156118fe575060408051601f3d908101601f191682019092526118fb918101906122b7565b60015b611958573d80801561192c576040519150601f19603f3d011682016040523d82523d6000602084013e611931565b606091505b5080516119505760405162461bcd60e51b815260040161059090612403565b805181602001fd5b6001600160e01b031916630a85bd0160e11b149050610c7f565b506001949350505050565b6060816119a15750506040805180820190915260018152600360fc1b602082015290565b8160005b81156119cb57806119b5816125e1565b91506119c49050600a83612519565b91506119a5565b60008167ffffffffffffffff8111156119f457634e487b7160e01b600052604160045260246000fd5b6040519080825280601f01601f191660200182016040528015611a1e576020820181803683370190505b5090505b8415610c7f57611a3360018361254c565b9150611a40600a866125fc565b611a4b906030612501565b60f81b818381518110611a6e57634e487b7160e01b600052603260045260246000fd5b60200101906001600160f81b031916908160001a905350611a90600a86612519565b9450611a22565b6000610490611aa4611d59565b8360405161190160f01b6020820152602281018390526042810182905260009060620160405160208183030381529060405280519060200120905092915050565b600080825160411415611b1c5760208301516040840151606085015160001a611b1087828585611e80565b94509450505050611b4e565b825160401415611b465760208301516040840151611b3b868383611f6d565b935093505050611b4e565b506000905060025b9250929050565b6000816004811115611b7757634e487b7160e01b600052602160045260246000fd5b1415611b805750565b6001816004811115611ba257634e487b7160e01b600052602160045260246000fd5b1415611bf05760405162461bcd60e51b815260206004820152601860248201527f45434453413a20696e76616c6964207369676e617475726500000000000000006044820152606401610590565b6002816004811115611c1257634e487b7160e01b600052602160045260246000fd5b1415611c605760405162461bcd60e51b815260206004820152601f60248201527f45434453413a20696e76616c6964207369676e6174757265206c656e677468006044820152606401610590565b6003816004811115611c8257634e487b7160e01b600052602160045260246000fd5b1415611cdb5760405162461bcd60e51b815260206004820152602260248201527f45434453413a20696e76616c6964207369676e6174757265202773272076616c604482015261756560f01b6064820152608401610590565b6004816004811115611cfd57634e487b7160e01b600052602160045260246000fd5b1415611d565760405162461bcd60e51b815260206004820152602260248201527f45434453413a20696e76616c6964207369676e6174757265202776272076616c604482015261756560f01b6064820152608401610590565b50565b6000306001600160a01b037f000000000000000000000000000000000000000000000000000000000000000016148015611db257507f000000000000000000000000000000000000000000000000000000000000000046145b15611ddc57507f000000000000000000000000000000000000000000000000000000000000000090565b50604080517f00000000000000000000000000000000000000000000000000000000000000006020808301919091527f0000000000000000000000000000000000000000000000000000000000000000828401527f000000000000000000000000000000000000000000000000000000000000000060608301524660808301523060a0808401919091528351808403909101815260c0909201909252805191012090565b6000807f7fffffffffffffffffffffffffffffff5d576e7357a4501ddfe92f46681b20a0831115611eb75750600090506003611f64565b8460ff16601b14158015611ecf57508460ff16601c14155b15611ee05750600090506004611f64565b6040805160008082526020820180845289905260ff881692820192909252606081018690526080810185905260019060a0016020604051602081039080840390855afa158015611f34573d6000803e3d6000fd5b5050604051601f1901519150506001600160a01b038116611f5d57600060019250925050611f64565b9150600090505b94509492505050565b6000806001600160ff1b03831681611f8a60ff86901c601b612501565b9050611f9887828885611e80565b935093505050935093915050565b828054611fb2906125a6565b90600052602060002090601f016020900481019282611fd4576000855561201a565b82601f10611fed57805160ff191683800117855561201a565b8280016001018555821561201a579182015b8281111561201a578251825591602001919060010190611fff565b5061202692915061202a565b5090565b5b80821115612026576000815560010161202b565b80356001600160a01b038116811461205657600080fd5b919050565b60006020828403121561206c578081fd5b610dfa8261203f565b60008060408385031215612087578081fd5b6120908361203f565b915061209e6020840161203f565b90509250929050565b6000806000606084860312156120bb578081fd5b6120c48461203f565b92506120d26020850161203f565b9150604084013590509250925092565b600080600080608085870312156120f7578081fd5b6121008561203f565b935061210e6020860161203f565b925060408501359150606085013567ffffffffffffffff80821115612131578283fd5b818701915087601f830112612144578283fd5b8135818111156121565761215661263c565b604051601f8201601f19908116603f0116810190838211818310171561217e5761217e61263c565b816040528281528a6020848701011115612196578586fd5b82602086016020830137918201602001949094529598949750929550505050565b600080604083850312156121c9578182fd5b6121d28361203f565b9150602083013580151581146121e6578182fd5b809150509250929050565b60008060408385031215612203578182fd5b61220c8361203f565b9150602083013567ffffffffffffffff811115612227578182fd5b8301608081860312156121e6578182fd5b6000806040838503121561224a578182fd5b6122538361203f565b946020939093013593505050565b600060208284031215612272578081fd5b5035919050565b6000806040838503121561228b578182fd5b8235915061209e6020840161203f565b6000602082840312156122ac578081fd5b8135610dfa81612652565b6000602082840312156122c8578081fd5b8151610dfa81612652565b600081518084526122eb816020860160208601612563565b601f01601f19169290920160200192915050565b8183823760009101908152919050565b60008351612321818460208801612563565b835190830190612335818360208801612563565b01949350505050565b7f416363657373436f6e74726f6c3a206163636f756e7420000000000000000000815260008351612376816017850160208801612563565b7001034b99036b4b9b9b4b733903937b6329607d1b60179184019182015283516123a7816028840160208801612563565b01602801949350505050565b6001600160a01b03858116825284166020820152604081018390526080606082018190526000906123e6908301846122d3565b9695505050505050565b602081526000610dfa60208301846122d3565b60208082526032908201527f4552433732313a207472616e7366657220746f206e6f6e20455243373231526560408201527131b2b4bb32b91034b6b83632b6b2b73a32b960711b606082015260800190565b60208082526031908201527f4552433732313a207472616e736665722063616c6c6572206973206e6f74206f6040820152701ddb995c881b9bdc88185c1c1c9bdd9959607a1b606082015260800190565b6000808335601e198436030181126124bc578283fd5b83018035915067ffffffffffffffff8211156124d6578283fd5b602001915036819003821315611b4e57600080fd5b6000808335601e198436030181126124bc578182fd5b6000821982111561251457612514612610565b500190565b60008261252857612528612626565b500490565b600081600019048311821515161561254757612547612610565b500290565b60008282101561255e5761255e612610565b500390565b60005b8381101561257e578181015183820152602001612566565b83811115610b0a5750506000910152565b60008161259e5761259e612610565b506000190190565b600181811c908216806125ba57607f821691505b602082108114156125db57634e487b7160e01b600052602260045260246000fd5b50919050565b60006000198214156125f5576125f5612610565b5060010190565b60008261260b5761260b612626565b500690565b634e487b7160e01b600052601160045260246000fd5b634e487b7160e01b600052601260045260246000fd5b634e487b7160e01b600052604160045260246000fd5b6001600160e01b031981168114611d5657600080fdfea2646970667358221220b3b2cc108d73522195b163d19a4a554ce7608835ec6c1e1a5284a5923988a10664736f6c63430008040033",
    "linkReferences": {},
    "deployedLinkReferences": {}
}